:020000040800F2
:1000000000000220C9590008CD4C0008D54C00085A
:10001000DD4C0008E54C0008ED4C00080000000035
:10002000000000000000000000000000F54C000887
:10003000034D000800000000114D00081F4D00088E
:10004000195A0008195A0008195A0008195A0008C4
:10005000195A0008195A0008195A0008195A0008B4
:10006000195A0008195A0008195A0008195A0008A4
:10007000195A0008195A0008195A0008195A000894
:100080002D4D0008414D0008195A000800000000DD
:10009000000000000000000000000000554D0008B6
:1000A000195A0008195A0008195A0008195A000864
:1000B000195A0008195A0008195A0008195A000854
:1000C000195A0008195A0008195A0008195A000844
:1000D000195A0008195A0008195A000800000000AF
:1000E000634D0008195A0008195A00080000000062
:1000F000000000000000000000000000195A000885
:1001000000000000195A0008195A0008195A00087E
:1001100000000000000000000000000000000000DF
:10012000794D00088D4D0008A14D0008195A0008AE
:10013000195A000800000000000000000000000044
:10014000000000000000000000000000195A000834
:10015000195A0008B54D0008C94D0008195A000881
:10016000195A0008195A0008000000000000000099
:10017000000000000000000000000000000000007F
:1001800000000000195A00080000000000000000F4
:08019000195A0008195A000871
:1001A00010B5054C237833B9044B13B10448AFF3B1
:1001B00000800123237010BD6C00002000000000AF
:1001C00090BA000808B5034B1BB103490348AFF3CD
:1001D000008008BD000000007000002090BA0008F8
:1001E00001F0FF01102A2BDB10F0070F08D010F8E8
:1001F000013B013A8B422DD010F0070F42B3F6D1EC
:10020000F0B441EA012141EA014122F007047FF004
:1002100000070023F0E80256083C85EA010586EA5B
:10022000010685FA47F5A3FA87F586FA47F6A5FA97
:1002300087F68EB9EED1F0BC01F0FF0102F00702A3
:1002400032B110F8013B013A83EA010313B1F8D14E
:100250000020704701387047002D06BF354603382F
:10026000073815F0010F07D1013015F4807F02BF68
:10027000013015F4C03F0130F0BC0138704700BFB9
:1002800081F0004102E000BF83F0004330B54FEA47
:1002900041044FEA430594EA050F08BF90EA020FB4
:1002A0001FBF54EA000C55EA020C7FEA645C7FEA47
:1002B000655C00F0E2804FEA5454D4EB5555B8BF6A
:1002C0006D420CDD2C4480EA020281EA030382EADB
:1002D000000083EA010180EA020281EA0303362D6D
:1002E00088BF30BD11F0004F4FEA01314FF4801C40
:1002F0004CEA113102D0404261EB410113F0004F52
:100300004FEA03334CEA133302D0524263EB430308
:1003100094EA050F00F0A780A4F10104D5F1200EA6
:100320000DDB02FA0EFC22FA05F2801841F1000101
:1003300003FA0EF2801843FA05F359410EE0A5F1D5
:1003400020050EF1200E012A03FA0EFC28BF4CF006
:10035000020C43FA05F3C01851EBE37101F00045BC
:1003600007D54FF0000EDCF1000C7EEB00006EEBC9
:100370000101B1F5801F1BD3B1F5001F0CD3490853
:100380005FEA30004FEA3C0C04F101044FEA4452AA
:1003900012F5800F80F09A80BCF1004F08BF5FEA31
:1003A000500C50F1000041EB045141EA050130BD11
:1003B0005FEA4C0C404141EB0101013C28BFB1F523
:1003C000801FE9D291F0000F04BF01460020B1FA6E
:1003D00081F308BF2033A3F10B03B3F120020CDA41
:1003E0000C3208DD02F1140CC2F10C0201FA0CF01F
:1003F00021FA02F10CE002F11402D8BFC2F1200C84
:1004000001FA02F120FA0CFCDCBF41EA0C01904039
:10041000E41AA2BF01EB0451294330BD6FEA040482
:100420001F3C1CDA0C340EDC04F11404C4F120026D
:1004300020FA04F001FA02F340EA030021FA04F37F
:1004400045EA030130BDC4F10C04C4F1200220FAD6
:1004500002F001FA04F340EA0300294630BD21FA14
:1004600004F0294630BD94F0000F83F4801306BFDA
:1004700081F480110134013D4EE77FEA645C18BFCE
:100480007FEA655C29D094EA050F08BF90EA020F65
:1004900005D054EA000C04BF1946104630BD91EA5D
:1004A000030F1EBF0021002030BD5FEA545C05D160
:1004B0004000494128BF41F0004130BD14F580049F
:1004C0003CBF01F5801130BD01F0004545F0FE4113
:1004D00041F470014FF0000030BD7FEA645C1ABF48
:1004E000194610467FEA655C1CBF0B46024650EA7F
:1004F000013406BF52EA033591EA030F41F40021AB
:1005000030BD00BF90F0000F04BF0021704730B530
:100510004FF4806404F132044FF000054FF0000105
:1005200050E700BF90F0000F04BF0021704730B5C6
:100530004FF4806404F1320410F0004548BF40429B
:100540004FF000013EE700BF42004FEAE2014FEAF0
:1005500031014FEA02701FBF12F07F4393F07F4FCB
:1005600081F06051704732F07F4208BF704793F0CE
:100570007F4F04BF41F40021704730B54FF46074E1
:1005800001F0004521F000411CE700BF50EA0102E4
:1005900008BF704730B54FF000050AE050EA01028D
:1005A00008BF704730B511F0004502D5404261EBFD
:1005B00041014FF4806404F132045FEA915C3FF43E
:1005C000D8AE4FF003025FEADC0C18BF03325FEADB
:1005D000DC0C18BF033202EBDC02C2F1200300FA8C
:1005E00003FC20FA02F001FA03FE40EA0E0021FAB1
:1005F00002F11444BDE600BF70B54FF0FF0C4CF49F
:10060000E06C1CEA11541DBF1CEA135594EA0C0F50
:1006100095EA0C0F00F0DEF82C4481EA030621EA8B
:100620004C5123EA4C5350EA013518BF52EA0335C6
:1006300041F4801143F4801338D0A0FB02CE4FF078
:100640000005E1FB02E506F00042E0FB03E54FF0A8
:100650000006E1FB03569CF0000F18BF4EF0010EA0
:10066000A4F1FF04B6F5007F64F5407404D25FEA9C
:100670004E0E6D4146EB060642EAC62141EA55514F
:100680004FEAC52040EA5E504FEACE2EB4F1FD0C91
:1006900088BFBCF5E06F1ED8BEF1004F08BF5FEA0F
:1006A000500E50F1000041EB045170BD06F00046C1
:1006B00046EA010140EA020081EA0301B4EB5C046E
:1006C000C2BFD4EB0C0541EA045170BD41F4801166
:1006D0004FF0000E013C00F3AB8014F1360FDEBF8B
:1006E000002001F0004170BDC4F10004203C35DA67
:1006F0000C341BDC04F11404C4F1200500FA05F3EA
:1007000020FA04F001FA05F240EA020001F000428A
:1007100021F0004110EBD37021FA04F642EB060100
:100720005EEA430E08BF20EAD37070BDC4F10C042A
:10073000C4F1200500FA04F320FA05F001FA04F2EE
:1007400040EA020001F0004110EBD37041F10001DA
:100750005EEA430E08BF20EAD37070BDC4F12005E5
:1007600000FA05F24EEA020E20FA04F301FA05F24D
:1007700043EA020321FA04F001F0004121FA04F2F5
:1007800020EA020000EBD3705EEA430E08BF20EAC5
:10079000D37070BD94F0000F0FD101F000464000FF
:1007A00041EB010111F4801F08BF013CF7D041EA81
:1007B000060195F0000F18BF704703F00046520085
:1007C00043EB030313F4801F08BF013DF7D043EA56
:1007D0000603704794EA0C0F0CEA135518BF95EA0C
:1007E0000C0F0CD050EA410618BF52EA4306D1D193
:1007F00081EA030101F000414FF0000070BD50EAB2
:10080000410606BF1046194652EA430619D094EA3B
:100810000C0F02D150EA013613D195EA0C0F05D125
:1008200052EA03361CBF104619460AD181EA030179
:1008300001F0004141F0FE4141F470014FF0000031
:1008400070BD41F0FE4141F4780170BD70B54FF0CC
:10085000FF0C4CF4E06C1CEA11541DBF1CEA13554C
:1008600094EA0C0F95EA0C0F00F0A7F8A4EB05042E
:1008700081EA030E52EA03354FEA013100F0888025
:100880004FEA03334FF0805545EA131343EA1263EE
:100890004FEA022245EA111545EA10654FEA0026A3
:1008A0000EF000419D4208BF964244F1FD0404F55C
:1008B000407402D25B084FEA3202B61A65EB0305B8
:1008C0005B084FEA32024FF480104FF4002CB6EB75
:1008D000020E75EB030E22BFB61A754640EA0C00F5
:1008E0005B084FEA3202B6EB020E75EB030E22BF35
:1008F000B61A754640EA5C005B084FEA3202B6EB76
:10090000020E75EB030E22BFB61A754640EA9C0034
:100910005B084FEA3202B6EB020E75EB030E22BF04
:10092000B61A754640EADC0055EA060E18D04FEAC2
:10093000051545EA16754FEA06164FEAC30343EA62
:1009400052734FEAC2025FEA1C1CC0D111F4801F2F
:100950000BD141EA00014FF000004FF0004CB6E728
:1009600011F4801F04BF01430020B4F1FD0C88BFC7
:10097000BCF5E06F3FF6AFAEB5EB030C04BFB6EBD2
:10098000020C5FEA500C50F1000041EB045170BDC5
:100990000EF0004E4EEA113114EB5C04C2BFD4EBF2
:1009A0000C0541EA045170BD41F480114FF0000E76
:1009B000013C90E645EA060E8DE60CEA135594EAF2
:1009C0000C0F08BF95EA0C0F3FF43BAF94EA0C0FF5
:1009D0000AD150EA01347FF434AF95EA0C0F7FF46A
:1009E00025AF104619462CE795EA0C0F06D152EABE
:1009F00003353FF4FDAE1046194622E750EA4106A2
:100A000018BF52EA43067FF4C5AE50EA41047FF4B2
:100A10000DAF52EA43057FF4EBAE12E74A0011D264
:100A200012F5001211D20DD56FF47873B3EB625248
:100A30000ED44FEAC12343F0004343EA505323FA54
:100A400002F070474FF00000704750EA013002D1C9
:100A50004FF0FF3070474FF0000070474FEA4102FF
:100A6000B2F1E04324BFB3F5001CDCF1FE5C0DD90C
:100A700001F0004C4FEAC0024CEA5070B2F1004F56
:100A800040EB830008BF20F00100704711F0804F59
:100A900021D113F13872BCBF01F00040704741F41E
:100AA00080114FEA5252C2F11802C2F1200C10FA22
:100AB0000CF320FA02F018BF40F001004FEAC12306
:100AC0004FEAD32303FA0CFC40EA0C0023FA02F3AA
:100AD0004FEA4303CCE77FEA625307D150EA013380
:100AE0001EBF4FF0FE4040F44000704701F0004050
:100AF00040F0FE4040F40000704700BF53B94AB9CF
:100B0000002908BF00281CBF4FF0FF314FF0FF3015
:100B100000F088B9ADF1080C6DE904CE00F006F8DC
:100B2000DDF804E0DDE9022304B070472DE9F04769
:100B3000089D8E4604468846002B4AD18A421746B5
:100B400062D9B2FA82F64EB1C6F1200301FA06F874
:100B500020FA03F3B74043EA0808B4404FEA174EBF
:100B60001FFA87FCB8FBFEF1230C0EFB118843EA49
:100B7000084301FB0CF29A4209D9FB1801F1FF303E
:100B800080F0EA809A4240F2E78002393B449A1AA8
:100B9000A3B2B2FBFEF00EFB102243EA024300FBBD
:100BA0000CFC9C4509D9FB1800F1FF3280F0D6807F
:100BB0009C4540F2D3803B44023840EA0140A3EB1D
:100BC0000C0300211DB1F3400022C5E90032BDE84D
:100BD000F0878B4205D90DB1C5E900010021084617
:100BE000F5E7B3FA83F1002946D1734502D3824277
:100BF00000F20581841A6EEB030201209046002D5D
:100C0000E5D0C5E90048E2E7002A00F09080B2FA9A
:100C100082F6002E40F0A4808A1A030C4FEA174E89
:100C200080B2BCB20121B2FBFEFC0EFB1C2243EAE7
:100C3000024304FB0CF29A4207D9FB180CF1FF386F
:100C400002D29A4200F2E080C4469B1AB3FBFEF245
:100C50000EFB123340EA034302FB04F49C4207D923
:100C6000FB1802F1FF3002D29C4200F2CA80024619
:100C70001B1B42EA0C40A5E7C1F120068B4022FA7B
:100C800006F71F430EFA01F420FA06F32EFA06FEC9
:100C90004FEA1749234300FA01F81FFA87FCBEFB0D
:100CA000F9F01C0C09FB10EE44EA0E4400FB0CFEAC
:100CB000A64502FA01F209D93C1900F1FF3A80F089
:100CC0009C80A64540F2998002383C44A4EB0E0477
:100CD0001FFA83FEB4FBF9F309FB13444EEA044404
:100CE00003FB0CFCA44508D93C1903F1FF3E80F03E
:100CF0008280A4457FD9023B3C4443EA0040A4EBF8
:100D00000C04A0FB02EC64457346E14662D35FD05D
:100D10005DB1B8EB030264EB090404FA06F622FAAB
:100D200001F31E43CC40C5E9006400214FE7B1FB4D
:100D3000F2FC010C41EA0E4180B240EA01423B461E
:100D400038463C46B846BE462026B1FBF7F1A2EB3A
:100D5000080241EA0C4166E7014618E710462CE715
:100D6000C6F120022EFA02F3B740B14020FA02F297
:100D70004FEA174E0A43B3FBFEF8BCB20EFB183322
:100D8000110C41EA034108FB04F9B04089454FEAE0
:100D9000104380B23ED9791808F1FF3C01D2894551
:100DA0001FD8A1EB0901B1FBFEF909FB04F80EFB0A
:100DB000191192B242EA0142424529D2BA1809F108
:100DC000FF31C4D24245C2D2A9F102013A44BEE782
:100DD000F0459DD2BEEB02036CEB070C0138E146F7
:100DE00096E7A7EB09094944A8F1020CB1FBFEF90B
:100DF00009FB04F8DBE773467FE7504666E70846E1
:100E0000FDE63B44023A33E7ACF1020C3B441CE7FD
:100E100049469CE7A1EB0901C446B1FBFEF909FB79
:100E200004F8C4E7704700BF80B584B000AFF86035
:100E3000B9607A607B689AB24FF0FF33B9680448B2
:100E400008F044F97B6818461037BD4680BD00BFE6
:100E5000E04A002080B582B000AF0023FB7100F0B3
:100E60009DF80346FB71FB7983F00103DBB2002B95
:100E700001D0002330E000F0A3FB0346FB71FB79B7
:100E800083F00103DBB2002B01D0002324E001F04A
:100E9000CDF80346FB71FB7983F00103DBB2002B35
:100EA00001D0002318E000F071F90346FB71FB79D3
:100EB00083F00103DBB2002B01D000230CE000F033
:100EC00021FF0346FB71FB7983F00103DBB2002BAA
:100ED00001D0002300E0FB7918460837BD4680BDED
:100EE00080B500AF01F0B8F800F0CAFA00F0E4F8FD
:100EF00000F07CFB00F01CFF00BF80BD80B582B01D
:100F000000AF7860786801F0AFF8786800F074FBA3
:100F100000BF0837BD4680BD80B483B000AF7860A5
:100F200000BF0C37BD465DF8047B704780B582B0CA
:100F300000AF78607B68002B05D1064B064AAA21DA
:100F4000064808F015FF7B685B7818460837BD46F1
:100F500080BD00BFA8BA0008A0C20008B0BA00084F
:100F600080B582B000AF78607B68002B05D1084B5C
:100F7000084AD021084808F0FBFE7868FFF7D6FF42
:100F800003460233DBB218460837BD4680BD00BFBA
:100F9000A8BA000888C20008B0BA000880B582B0BC
:100FA00000AF0023FB710123BB7103220F491048DE
:100FB00004F00EFE0346BB71BB79002B01D0002369
:100FC0000FE00C4A07210C4803F0A6FA0346FB7118
:100FD000FB7983F00103DBB2002B01D0002300E09A
:100FE000012318460837BD4680BD00BF8C00002095
:100FF000684800208800002020BB000880B483B02F
:1010000000AF264B1B8807EE903AF8EE677A9FED0B
:10101000247A67EE876A234B9B6807EE903AB8EE16
:10102000677AC6EE877AC7ED017A1E4B1B6807EE1A
:10103000903AF8EE677ADFED1C6A87EEA67AD7ED74
:10104000016A9FED1A6AC6EE867A67EE277A9FEDEF
:10105000187A67EE877A174BC3ED007A114B5B68FD
:1010600007EE903AF8EE677ADFED0F6A87EEA67A20
:10107000D7ED016A9FED0D6AC6EE867A67EE277A94
:101080009FED0B7A67EE877A0A4BC3ED017A00BFBA
:101090000C37BD465DF8047B704700BF2A7AFF1FFE
:1010A00000404E458C00002000F07F4500007A444F
:1010B0006666B64098000020B0B592B000AFFFF76A
:1010C0009DFF2E4B07F108041D460FCD0FC40FCD19
:1010D0000FC40FCD0FC495E80F0007C42380284B21
:1010E000D3ED007A9FED277A67EE877AFCEEE77AF8
:1010F00017EE903A9BB2FB80214BD3ED017A9FED26
:10110000217A67EE877AFCEEE77A17EE903A9BB287
:10111000BB80BA1D07F108000123802102F0DAF933
:1011200007F108031846FFF71BFF034687F847300F
:10113000154B1B6897F8472007F10801184603F084
:1011400009FA3A1D07F108000123812102F0C2F9D2
:1011500007F108031846FFF703FF034687F84730F7
:10116000094B1B6897F8472007F10801184603F060
:10117000F1F900BF4837BD46B0BD00BF28BB00082D
:101180009800002000007A448800002080B586B0D6
:1011900004AF0023FB714FF47A7302934FF4FA7398
:1011A000019340F213730093AC23002296499748B1
:1011B00001F0DCFB4FF47A7302934FF4FA7301935E
:1011C00040F213730093AC2304228F49904801F03E
:1011D000CDFB4FF47A7302934FF4FA73019340F20C
:1011E00013730093AC230C228A498B4801F0BEFB99
:1011F0004FF47A7302934FF4FA73019340F213732E
:101200000093AC2304228549854801F0AFFB4FF4DD
:10121000617302934FF41673019340F213730093BA
:10122000AC2304227B497F4801F0A0FB40F2E2435B
:101230000293FA23019340F213730093AC2300222C
:101240007649794801F092FB40F2E2430293FA2397
:10125000019340F213730093AC2300226D4973484D
:1012600001F084FB40F2E2430293FA23019340F23F
:1012700013730093AC2304226D496E4801F076FB92
:1012800040F2E2430293FA23019340F21373009376
:10129000AC2308225F49684801F068FB40F29A31AC
:1012A0005D4801F0ABFB0346FB71FB7983F0010362
:1012B000DBB2002B01D00023A2E040F29A31584863
:1012C00001F09CFB0346FB71FB7983F00103DBB269
:1012D000002B01D0002393E040F29A31514801F0F5
:1012E0008DFB0346FB71FB7983F00103DBB2002B1E
:1012F00001D0002384E04FF478714B4801F07EFB6D
:101300000346FB71FB7983F00103DBB2002B01D0B4
:10131000002375E0AE213D4801F070FB0346FB71F0
:10132000FB7983F00103DBB2002B01D0002367E0DF
:10133000AE21374801F062FB0346FB71FB7983F075
:101340000103DBB2002B01D0002359E040F29A31B7
:10135000364801F053FB0346FB71FB7983F0010330
:10136000DBB2002B01D000234AE040F29A31314831
:1013700001F044FB0346FB71FB7983F00103DBB210
:10138000002B01D000233BE040F29A312A4801F0C3
:1013900035FB0346FB71FB7983F00103DBB2002BC5
:1013A00001D000232CE0254802F000F90346FB7130
:1013B000FB7983F00103DBB2002B01D000231FE097
:1013C0001F4A07211F4803F0A7F80346FB71FB796A
:1013D00083F00103DBB2002B01D0002310E0184B97
:1013E0001B681949184603F00FF90346FB71FB7996
:1013F00083F00103DBB2002B01D0002300E0FB7976
:1014000018460837BD4680BDC0490020A000002016
:10141000B8000020504A0020D0000020984A002048
:10142000E800002000010020180100203001002009
:10143000084A002048010020600100207C010020B3
:101440007801002068BB00084D14000880B584B006
:1014500000AF78600B46FB700023FB7307F10F03AE
:10146000FA787968044802F09FF9044B01221A7057
:1014700000BF1037BD4680BD7C0100209A0D0020C2
:10148000B0B596B000AF444B1B7883F00103DBB2DC
:10149000002B7AD1404B00221A70404B07F1180400
:1014A0001D460FCD0FC40FCD0FC40FCD0FC495E84F
:1014B0000F0007C423803B4600221A605A609A60DE
:1014C000DA601A619A8207F118031946344802F06B
:1014D000FBF8034683F00103DBB2002B57D13A46F9
:1014E00007F118031146184601F006FF034683F082
:1014F0000103DBB2002B46D13B88C3F30A039BB246
:101500001946284801F07AFA3B88C3F30A039BB2D4
:101510001946254801F072FA7B889B099BB23A79FB
:1015200002F00102920213439BB2C3F5F763073343
:1015300019461E4801F062FA3B68C3F3CA239BB206
:10154000C3F5F76307331946194801F057FA3B68AA
:10155000C3F3CA239BB2C3F5F76307331946154893
:1015600001F04CFABB88C3F34A039BB219461248F8
:1015700001F044FABB88C3F34A039BB219460F48F3
:1015800001F03CFA9FE700BF9DE700BF00E000BF0D
:101590005837BD46B0BD00BF9A0D002070BB000893
:1015A0007C010020A0000020B800002000010020E5
:1015B000D0000020E80000201801002030010020A9
:1015C00080B582B000AF0023FB7100F059F80346EC
:1015D000FB71FB7983F00103DBB2002B01D0002308
:1015E00000E0012318460837BD4680BD80B500AF36
:1015F00000F070F900BF80BD80B582B000AF7860A8
:10160000786800F06DF900BF0837BD4680BD000066
:1016100080B582B000AF78607B68002B05D1064BA7
:10162000064AAA21064808F0A3FB7B685B781846A7
:101630000837BD4680BD00BFB0BB0008D8C2000857
:10164000B8BB000880B582B000AF78607B68002B23
:1016500005D1084B084AD021084808F089FB786872
:10166000FFF7D6FF03460233DBB218460837BD4604
:1016700080BD00BFB0BB0008C0C20008B8BB0008F6
:1016800080B582B000AF0123FB710023BB711D4800
:1016900002F064FC0346BB71BB7983F00103DBB24B
:1016A000002B01D0002329E0174801F07FFF0346FB
:1016B000BB71BB7983F00103DBB2002B01D00023A7
:1016C0001CE0124A0721124802F026FF0346BB71B4
:1016D000BB7983F00103DBB2002B01D000230DE0C6
:1016E0000C4B96220C49184607F07BFD0346FB7114
:1016F000FB79002B01D0002300E0012318460837B6
:10170000BD4680BD3C0E0020080F0020340E002096
:1017100028BC0008704B00209C0D00200000000039
:101720002DE9F041C6B004AF5F4B1B7883F0010395
:10173000DBB2002B40F0AB805B4B00221A705B4A9F
:1017400007F1A40311466422184608F0E6FC07F1ED
:1017500048035C220021184608F03FFC07F584731B
:10176000A3F58073524A1C4615460FCD0FC40FCD0A
:101770000FC40FCD0FC495E80F0007C4238007F5F1
:101780008473A3F5817300221A80BB1D96224949F8
:10179000494802F0A3FC62E007F1480207F1A40304
:1017A0001146184602F0F2FA034683F00103DBB259
:1017B000002B53D17D6E3E6ED7F884301846FEF76D
:1017C000B1FE37A3D3E90023FFF740F802460B46EA
:1017D00010461946FFF722F903461FFA83F8D7F897
:1017E00088301846FEF79EFE4FF00002334BFFF79D
:1017F0002DF802460B4610461946FFF70FF903462F
:101800009CB2BB6E1846FEF78DFE4FF000022B4BCC
:10181000FFF71CF802460B4610461946FFF7FEF884
:1018200003469BB297F85F2007F1080002920193EC
:10183000009443463246294601F0A6FD204B1C6821
:1018400007F108031846FFF7FDFE03461A4607F1A5
:1018500008031946204602F07DFE00E000BF07F1B4
:10186000A4031946144802F0E7FB0346002B93D16A
:10187000144B96220F49184607F0B3FC0346002B81
:1018800006D0114B114A5021114808F071FA00BFDF
:1018900007F58477BD46BDE8F08100BFAFF3008057
:1018A000000000000088C340380E002064BC00081F
:1018B000C8BC00089C0D00203C0E002000408F405A
:1018C000340E0020704B002030BC0008B0C200086D
:1018D00038BC000880B500AFFFF722FF00BF80BD15
:1018E00080B483B000AF78607B681A68064B1B68D1
:1018F0009A4202D1054B01221A7000BF0C37BD4637
:101900005DF8047B704700BF704B0020380E00204C
:1019100080B582B000AF78607B68002B05D1064BA4
:10192000064AAA21064808F023FA7B685B78184625
:101930000837BD4680BD00BF08BD000800C30008D1
:1019400010BD000880B582B000AF78607B68002BC6
:1019500005D1084B084AD021084808F009FA7868F0
:10196000FFF7D6FF03460233DBB218460837BD4601
:1019700080BD00BF08BD0008E8C2000810BD000817
:1019800080B582B000AF87ED010A7868FEF7DCFD14
:1019900009A3D3E90023FEF759FF02460B46104680
:1019A0001946FFF75BF8034607EE903AB0EE670A78
:1019B0000837BD4680BD00BFF8C1631ADCA54C40A6
:1019C00080B584B002AF0023FB714FF480530193C4
:1019D000544B00939FED541ADFED540A9FED540AC7
:1019E0004FF400534F4A5349534800F07BFC0346E1
:1019F000FB71322004F084F8FB7983F00103DBB241
:101A0000002B01D0002388E000226C214A4800F01E
:101A100055FC0346FB71322004F072F8FB7983F029
:101A20000103DBB2002B01D0002376E00022192154
:101A3000414800F043FC0346FB71322004F060F89B
:101A4000FB7983F00103DBB2002B01D0002364E0BB
:101A500005221A21384800F031FC0346FB71322080
:101A600004F04EF8FB7983F00103DBB2002B01D0C8
:101A7000002352E018221B212F4800F01FFC0346D0
:101A8000FB71322004F03CF8FB7983F00103DBB2F8
:101A9000002B01D0002340E018221C21264800F032
:101AA0000DFC0346FB71322004F02AF8FB7983F029
:101AB0000103DBB2002B01D000232EE003221D2105
:101AC0001D4800F0FBFB0346FB71322004F018F8C0
:101AD000FB7983F00103DBB2002B01D000231CE073
:101AE000154800F045FE0346FB71FB7983F00103C6
:101AF000DBB2002B01D000230FE0104A0721104871
:101B000002F00AFD0346FB71FB7983F00103DBB2AF
:101B1000002B01D0002300E0FB7918460837BD46B2
:101B200080BD00BF00040240DBF97E3F0000003AA8
:101B300000007A3D64490020281B0020641B00201F
:101B400078BD0008B0B594B004AF584800F092FDDD
:101B50000346002B00F0A680554B3C461D460FCD9A
:101B60000FC40FCD0FC40FCD0FC495E80F0007C4ED
:101B70002380504B0293504B0193504B0093504B9A
:101B8000504A5149494800F06FFC4F4BB3F90010DF
:101B90004C4BB3F900204A4BB3F900304B4802904C
:101BA0004B4801904B480090404800F085FE434B65
:101BB000B3F90010404BB3F900203E4BB3F90030AD
:101BC000454802904548019045480090374800F04C
:101BD00027FE404BD3ED007A3D4B93ED007A3B4B13
:101BE000D3ED006A3E4B93ED006A3C4BD3ED005AB7
:101BF000394B93ED005AF0EE452AB0EE652AF0EE2F
:101C0000461AB0EE661AF0EE470AB0EE670A35489B
:101C100000F05EFF334BD3ED027AB0EE670AFFF7B8
:101C2000AFFEF0EE407A9FED307A67EE877AFDEEF8
:101C3000E77A17EE903A1CB22A4BD3ED037AB0EE56
:101C4000670AFFF79DFEF0EE407A9FED277A67EE78
:101C5000877AFDEEE77A17EE903A1DB2214BD3ED6D
:101C6000047AB0EE670AFFF78BFEF0EE407A9FED44
:101C70001E7A67EE877AFDEEE77A17EE903A1BB28E
:101C800038462A46214601F0D9FB184B1C683B46D2
:101C90001846FFF757FE03461A463B4619462046AC
:101CA00002F058FC00BF4037BD46B0BD281B0020E5
:101CB00080BD0008721B0020701B00206E1B0020DE
:101CC0006C1B00206A1B0020681B00207C1B00206E
:101CD000781B0020741B0020881B0020841B002020
:101CE000801B0020441B002000401C46641B002079
:101CF00080B500AF024800F0D1FC00BF80BD00BF3E
:101D0000281B002080B582B000AF0023FB71FFF7D5
:101D100057FE0346FB71FB7983F00103DBB2002B16
:101D200001D0002300E0012318460837BD4680BDDE
:101D300080B500AFFFF706FF00BF80BD80B582B061
:101D400000AF78607B68002B05D1064B064AAA21BC
:101D5000064808F00DF87B685B7818460837BD46E2
:101D600080BD00BFC0BD000828C30008C8BD000872
:101D700080B582B000AF78607B68002B05D1084B3E
:101D8000084AD021084807F0F3FF7868FFF7D6FF2C
:101D900003460233DBB218460837BD4680BD00BF9C
:101DA000C0BD000810C30008C8BD000880B582B0DF
:101DB00000AF0023FB710123BB712D4801F0F6FB3E
:101DC0000346FB71FB7983F00103DBB2002B01D0EA
:101DD000002349E0274801F0E9FB0346FB71FB794A
:101DE00083F00103DBB2002B01D000233CE0224A48
:101DF0000721224802F090FB0346FB71FB7983F038
:101E00000103DBB2002B01D000232DE01C4A072187
:101E10001C4802F081FB0346FB71FB7983F0010350
:101E2000DBB2002B01D000231EE0154B1B681649C6
:101E3000184602F0E9FB0346FB71FB7983F00103CE
:101E4000DBB2002B01D000230EE0104B1B683E22BA
:101E50000F49184607F0C5F90346BB71BB79002B43
:101E600001D0002300E0012318460837BD4680BD9D
:101E7000D41B0020F4270020CC1B002038BE000813
:101E8000D01B002040BE0008951E00080000002066
:101E90008C1B002080B584B000AF78600B46FB70CF
:101EA0000023FB7307F10F03FA787968034801F008
:101EB0007BFC00BF1037BD4680BD00BFF42700206B
:101EC000B0B590B000AF134B3C461D460FCD0FC4CC
:101ED0000FCD0FC40FCD0FC495E80F0007C42380AA
:101EE0000AE03B461846FFF743FF03461A463946C9
:101EF000C823094807F0EAF83B461946074801F0AD
:101F0000E3FB0346002BECD100BF00BF4037BD46CA
:101F1000B0BD00BF48BE0008E04A0020F427002002
:101F2000B0B590B000AF2B4B1B7883F00103DBB250
:101F3000002B4AD1274B00221A70002387F83E302D
:101F400007F13E033E222449244801F02DFC244B96
:101F50003C461D460FCD0FC40FCD0FC40FCD0FC48F
:101F600095E80F0007C42380002387F83F303B46E5
:101F700019461A4801F0A8FB034687F83F3097F846
:101F80003F3083F00103DBB2002B0DD1154B1C68F1
:101F90003B461846FFF7ECFE03461A463B461946F9
:101FA000204602F0D7FAE2E700BF0F4B1B683E2243
:101FB0000949184607F015F90346002B06D00B4BCC
:101FC0000B4A6C210B4807F0D3FE00BF4037BD46DB
:101FD000B0BD00BFCA1B00208C1B0020D41B0020FA
:101FE00048BE0008CC1B00200000002088BE00086E
:101FF00038C3000890BE000880B483B000AF78609A
:102000007B681A68074B1B681B689A4203D1064B12
:1020100001221A7000E000BF0C37BD465DF8047B5A
:10202000704700BF00000020CA1B002080B582B0AE
:1020300000AF0023FB71FFF7B9FE0346FB71FB798C
:1020400083F00103DBB2002B01D0002300E0012369
:1020500018460837BD4680BD80B500AFFFF760FF6A
:10206000FFF72EFF00BF80BD80B582B000AF786063
:102070007868FFF7C1FF00BF0837BD4680BD00008C
:1020800080B582B000AF78607B68002B05D1094B2A
:10209000094A0E21094807F06BFE7B6858687B6887
:1020A0001B890022194604F05BFF00BF0837BD46BC
:1020B00080BD00BFBCBE000848C30008C0BE000809
:1020C00080B582B000AF78607B68002B05D1094BEA
:1020D000094A1521094807F04BFE7B6858687B6860
:1020E0001B890122194604F03BFF00BF0837BD469B
:1020F00080BD00BFBCBE000850C30008C0BE0008C1
:1021000080B586B000AFF8607A601A460B46FB7265
:102110001346BB72FB68002B05D1274B274A1C21B5
:10212000274807F025FE7B68002B05D1254B234A65
:102130001D21234807F01CFEBB7A002B05D1224B42
:102140001E4A1E211E4807F013FEFB7A63F07F0330
:10215000DBB2FB72F868FFF793FFFB68186807F1C2
:102160000B014FF4FA73012205F05DFD0346FB7588
:10217000FB7D002B04D0F868FFF7A2FF002316E0D8
:10218000FB681868BB7A9AB24FF4FA63796805F075
:102190008EFE0346FB75FB7D002B04D0F868FFF72D
:1021A0008FFF002303E0F868FFF78AFF012318463A
:1021B0001837BD4680BD00BFBCBE000858C300082C
:1021C000C0BE0008E4BE0008E8BE000880B586B0C6
:1021D00000AFF8607A601A460B46FB721346BB727A
:1021E000FB68002B05D1274B274A3721274807F0EA
:1021F000BFFD7B68002B05D1254B234A382123489E
:1022000007F0B6FDBB7A002B05D1224B1E4A3921BF
:102210001E4807F0ADFDFB7A03F07F03DBB2FB72D3
:10222000F868FFF72DFFFB68186807F10B014FF402
:10223000FA73012205F0F7FC0346FB75FB7D002BCA
:1022400004D0F868FFF73CFF002316E0FB6818682D
:10225000BB7A9AB24FF4FA63796805F0E4FC03465E
:10226000FB75FB7D002B04D0F868FFF729FF0023E6
:1022700003E0F868FFF724FF012318461837BD462E
:1022800080BD00BFBCBE00086CC30008C0BE000813
:10229000E4BE0008E8BE000880B584B000AFF86076
:1022A0000B467A60FB72F97A01237A68F868FFF7C7
:1022B00027FF034618461037BD4680BD80B582B063
:1022C00000AF78600B46FB701346BB70BA1CF97800
:1022D00001237868FFF77AFF034618460837BD46A2
:1022E00080BD000080B58AB000AFF861B9617A6145
:1022F00087ED030AC7ED020A87ED011A7B82FB69AD
:10230000002B05D1524B534A5C21534807F030FD56
:10231000BB69002B05D1514B4E4A5D214E4807F059
:1023200027FD7B69002B05D14D4B4A4A5E214A4867
:1023300007F01EFD3B6B002B05D14A4B454A5F2140
:10234000454807F015FDF869FFF7BAFEFB69BA6961
:102350001A60FB697A695A60FB697A8A1A81FB699B
:102360003A6BDA60FB69BA8E1A82FB69FA685A61C5
:10237000FB69BA689A61002387F82630002387F842
:102380002530002387F827301CE007F125031A4683
:102390007521F869FFF780FF034687F8263097F824
:1023A0002530122B03D197F82630002B0ED197F849
:1023B0002730042B01D1002345E097F82730013363
:1023C00087F8273097F82730042BDED980226B213D
:1023D000F869FFF773FF034687F82630322003F0D1
:1023E0008FFB97F8263083F00103DBB2002B01D07E
:1023F000002328E001226B21F869FFF75FFF034605
:1024000087F82630322003F07BFB97F8263083F0E4
:102410000103DBB2002B01D0002314E0012238219C
:10242000F869FFF74BFF034687F82630322003F0A8
:1024300067FB97F8263083F00103DBB2002B01D055
:10244000002300E0012318462837BD4680BD00BFA9
:10245000BCBE000880C30008C0BE0008F4BE00086F
:10246000FCBE000804BF000880B588B000AFF8606B
:10247000B9607A603B60BB68002B05D1424B434A90
:102480009021434807F074FC7B68002B05D1414B39
:102490003E4A91213E4807F06BFC3B68002B05D17A
:1024A0003D4B3A4A92213A4807F062FCBB6A002B46
:1024B00005D13A4B354A9321354807F059FCFB6A60
:1024C000002B05D1364B314A9421314807F050FC9E
:1024D0003B6B002B05D1334B2C4A95212C4807F040
:1024E00047FC07F110020E233B21F868FFF708FEB6
:1024F0000346FB77FB7F83F00103DBB2002B01D0A7
:10250000FB7F3CE03B7C1BB21B021AB27B7C1BB204
:1025100013431AB2BB681A80BB7C1BB21B021AB2EF
:10252000FB7C1BB213431AB27B681A803B7D1BB243
:102530001B021AB27B7D1BB213431AB23B681A808E
:102540003B7E1BB21B021AB27B7E1BB213431AB234
:10255000BB6A1A80BB7E1BB21B021AB2FB7E1BB287
:1025600013431AB2FB6A1A803B7F1BB21B021AB2DA
:102570007B7F1BB213431AB23B6B1A80FB7F18465A
:102580002037BD4680BD00BF10BF000890C30008C3
:10259000C0BE00081CBF000828BF000834BF0008E8
:1025A00040BF00084CBF000880B586B000AFF8609F
:1025B000B9607A603B60BB68002B05D1284B294A83
:1025C000C021294807F0D4FB7B68002B05D1274B9D
:1025D000244AC121244807F0CBFB3B68002B05D1DE
:1025E000234B204AC221204807F0C2FB07F1100309
:1025F00000221A609A8007F1100206233B21F86836
:10260000FFF77EFD0346FB75FB7D83F00103DBB224
:10261000002B01D0FB7D1EE03B7C1BB21B021AB2DB
:102620007B7C1BB213431AB2BB681A80BB7C1BB203
:102630001B021AB2FB7C1BB213431AB27B681A80CE
:102640003B7D1BB21B021AB27B7D1BB213431AB235
:102650003B681A80FB7D18461837BD4680BD00BF19
:1026600010BF0008ACC30008C0BE00081CBF0008B3
:1026700028BF000880B485B000AF78607B68012275
:102680009A747B689B7CFB737B6800229A74FB7B4B
:1026900018461437BD465DF8047B704780B483B09C
:1026A00000AF78607B6801229A7400BF0C37BD468A
:1026B0005DF8047B704780B584B000AFF8600846D1
:1026C00011461A4603467B810B463B811346FB802D
:1026D000B7F90A201346DB079B1A5B001B12DBB21B
:1026E0001A461321F868FFF7E9FD7B89DBB21A4629
:1026F000D201D31A5B00DBB21A461421F868FFF747
:10270000DDFDB7F908201346DB079B1A5B001B129F
:10271000DBB21A461521F868FFF7D0FD3B89DBB222
:102720001A46D201D31A5B00DBB21A461621F868AA
:10273000FFF7C4FDB7F906201346DB079B1A5B00C1
:102740001B12DBB21A461721F868FFF7B7FDFB88AA
:10275000DBB21A46D201D31A5B00DBB21A4618214B
:10276000F868FFF7ABFD012318461037BD4680BD62
:1027700080B588B000AF786000237B6120E007F16E
:102780000E0307F1100207F112017868FFF70CFF42
:10279000FA8BB7F912309BB213449BB2FB83BA8B0E
:1027A000B7F910309BB213449BB2BB837A8BB7F955
:1027B0000E309BB213449BB27B837B6901337B61F8
:1027C0007B69B3F57A7FDADBB7F91E30134A82FBF7
:1027D00003129211DB17D31AFB83B7F91C300F4A8F
:1027E00082FB03129211DB17D31ABB83B7F91A309D
:1027F0000A4A82FB03129211DB17D31A7B83B7F9C3
:102800001A30B7F91C20B7F91E107868FFF753FF8C
:10281000034618462037BD4680BD00BFD34D621029
:1028200080B584B000AFF860084611461A460346EA
:102830007B810B463B811346FB80FB68002B06D156
:102840001A4B1B4A40F251111A4807F091FAB7F996
:102850000A3007EE903AB8EEE77AFB68D3ED057AD6
:1028600067EE277ABB69C3ED007AB7F9083007EE47
:10287000903AB8EEE77AFB68D3ED057A67EE277AEF
:10288000FB69C3ED007AB7F9063007EE903AB8EE6F
:10289000E77AFB68D3ED057A67EE277A3B6AC3EDEA
:1028A000007A00BF1037BD4680BD00BFBCBE000827
:1028B000C4C30008C0BE000880B485B000AFF86093
:1028C000084611461A4603467B810B463B81134658
:1028D000FB80B7F90A3007EE903AB8EEE77AFB686A
:1028E000D3ED067A67EE277ABB69C3ED007AB7F9B4
:1028F000083007EE903AB8EEE77AFB68D3ED067A37
:1029000067EE277AFB69C3ED007AB7F9063007EE68
:10291000903AB8EEE77AFB68D3ED067A67EE277A4D
:102920003B6AC3ED007A00BF1437BD465DF8047BF7
:10293000704780B485B000AFF860B9607A603B60E2
:10294000FA68BB68D31AB9693A688A1A03FB02F2BB
:102950007968BB68CB1AB2FBF3F23B6813441846A4
:102960001437BD465DF8047B7047000080B586B023
:1029700000AFF860B9607A603B60FB68002B05D15E
:102980001A4B1B4A12211B4807F0F2F9BB68002BB7
:1029900005D1194B164A1321164807F0E9F9FB68CF
:1029A000BA681A60FB687A685A60FB683A689A608D
:1029B000FB683A6ADA60FB687A6A1A61FB68BA6A8D
:1029C0005A61FB681A68FB685B681946104605F097
:1029D000C3FE0346FB75FB7D002B01D0002300E006
:1029E000012318461837BD4680BD00BF58BF0008F8
:1029F000D8C3000860BF000880BF000880B586B05B
:102A000002AF786039607B68002B05D11D4B1E4AF0
:102A100028211E4807F0ACF97B6899687B68DA6862
:102A20007B6818697B685B69009303463868FFF729
:102A300080FFF8607B685B68002B05D17B681B68B2
:102A40001B68FA685A6318E07B685B68042B05D141
:102A50007B681B681A68FB6893630EE07B685B68A1
:102A6000082B05D17B681B681A68FB68D36304E0F8
:102A70007B681B681A68FB681364012318461037CB
:102A8000BD4680BD58BF0008E4C3000860BF000811
:102A900080B582B000AF87ED010A7868FDF754FD7C
:102AA00009A3D3E90023FDF7D1FE02460B461046E9
:102AB0001946FDF7D3FF034607EE903AB0EE670ADA
:102AC0000837BD4680BD00BFF8C1631ADCA54C4085
:102AD00080B52DED028B90B000AFF86187ED060A4E
:102AE000C7ED050A87ED041AC7ED031A87ED022A20
:102AF000C7ED012AFB69002B05D1CB4BCB4A102136
:102B0000CB4807F035F9FB69FA685A61FB69BA6886
:102B10009A61FB697A68DA6102F0E6FFF863FB69A3
:102B20005B68FA6B9A4201D1002370E1FB6B07EE00
:102B3000903AB8EE677AFB695B6807EE903AF8EE78
:102B4000677A37EE677ADFEDBB6AC7EE267AC7EDA4
:102B50000E7A97ED037AD7ED0E7A67EE277AC7EDF6
:102B60000D7A97ED027AD7ED0E7A67EE277AC7EDE8
:102B70000C7A97ED017AD7ED0E7A67EE277AC7EDDA
:102B80000B7A97ED0B0AFFF783FFF0EE407AB0EE79
:102B9000670A08F0D5F8B0EE407AD7ED0C7A67EE08
:102BA000277AFB6993ED027A77EE677AFB69C3EDCA
:102BB000027A97ED0B0AFFF76BFFF0EE407AB0EE6A
:102BC000670A08F0BDF8B0EE407AD7ED0D7A27EE2F
:102BD000277AFB69D3ED037A77EE277AFB69C3ED99
:102BE000037AFB6993ED047AD7ED0B7A77EE277AB7
:102BF000FB69C3ED047AD7ED067A27EEA77AD7ED05
:102C0000047A67EEA77A77EE277AB0EE670A08F0C3
:102C100079F8F0EE407AF0EE670A97ED050A08F0D1
:102C20006FF810EE103A1846FDF78EFC7CA3D3E93E
:102C30000023FDF7E1FC02460B4610461946FDF75E
:102C40000DFF0346BB62D7ED067AB1EE678AD7ED7A
:102C5000057A27EEA77AD7ED047A67EEA77A77EEA2
:102C6000277AB0EE670A08F04DF8F0EE407AF0EE01
:102C7000670AB0EE480A08F043F810EE103A18461A
:102C8000FDF762FC66A3D3E90023FDF7B5FC02461D
:102C90000B4610461946FDF7E1FE03467B62FB69D1
:102CA0001B683B62B7EE007AD7ED087A37EE677A99
:102CB000D7ED0A7A27EE277AFB69D3ED026AD7EDC2
:102CC0000D7A76EEA76AD7ED087A66EEA77A77EEE8
:102CD000277AFB69C3ED027AB7EE007AD7ED087A5E
:102CE00037EE677AD7ED097A27EE277AFB69D3EDBD
:102CF000036AD7ED0C7A76EEA76AD7ED087A66EE0E
:102D0000A77A77EE277AFB69C3ED037AFB69D3EDE7
:102D1000027A9FED497AF4EEC77AF1EE10FA0ADBF7
:102D2000FB69D3ED027A9FED457A77EEC77AFB69AE
:102D3000C3ED027A13E0FB69D3ED027A9FED407A8E
:102D4000F4EEC77AF1EE10FA09D5FB69D3ED027AF9
:102D50009FED3A7A77EE877AFB69C3ED027AFB69D9
:102D6000D3ED037A9FED347AF4EEC77AF1EE10FAE0
:102D70000ADBFB69D3ED037A9FED307A77EEC77AF1
:102D8000FB69C3ED037A13E0FB69D3ED037A9FED92
:102D90002C7AF4EEC77AF1EE10FA09D5FB69D3ED7F
:102DA000037A9FED267A77EE877AFB69C3ED037A83
:102DB000FB69D3ED047A9FED207AF4EEC77AF1EE49
:102DC00010FA0ADBFB69D3ED047A9FED1C7A77EEEB
:102DD000C77AFB69C3ED047A13E0FB69D3ED047A8B
:102DE0009FED177AF4EEC77AF1EE10FA09D5FB6978
:102DF000D3ED047A9FED117A77EE877AFB69C3ED04
:102E0000047A02F071FE0246FB695A6001231846FB
:102E10004037BD46BDEC028B80BD00BFAFF30080E4
:102E2000F8C1631ADCA54C4088BF0008F0C3000855
:102E300090BF000800007A44000034430000B4430F
:102E4000000034C380B582B000AF78607B68002B8F
:102E500005D1064B064AAA21064806F089FF7B6881
:102E60005B7818460837BD4680BD00BFB4BF000878
:102E700064C40008BCBF000880B582B000AF7860B1
:102E80007B68002B05D1084B084AB121084806F0A1
:102E90006FFF7868FFF7D6FF0346023BDBB21846A8
:102EA0000837BD4680BD00BFB4BF00084CC4000851
:102EB000BCBF000880B582B000AF78607B68002B93
:102EC00005D1064B064AB821064806F051FF7B683B
:102ED0009B7818460837BD4680BD00BFB4BF0008C8
:102EE000C8C40008BCBF000880B582B000AF7860DD
:102EF0007B68002B05D1084B084AD021084806F012
:102F000037FF7868FFF79EFF03460233DBB21846AF
:102F10000837BD4680BD00BFB4BF0008B0C400087C
:102F2000BCBF000880B483B000AF78600B467B80E4
:102F30007B881B0A9BB2DAB27B681A707B6801330C
:102F40007A88D2B21A7000BF0C37BD465DF8047B98
:102F5000704780B483B000AF786039603B681B165F
:102F6000DAB27B681A703B681A147B680133D2B2FC
:102F70001A703B681A127B680233D2B21A707B68EF
:102F800003333A68D2B21A7000BF0C37BD465DF801
:102F9000047B704780B582B000AF78600B46FB7051
:102FA0007B68002B05D1064B064A3A21064806F0FD
:102FB000DFFE7B68FA781A7000BF0837BD4680BD17
:102FC000B4BF000808C40008E0BF000880B582B0A4
:102FD00000AF78600B46FB707B68002B05D1064B79
:102FE000064A4121064806F0C3FE7B68FA785A700B
:102FF00000BF0837BD4680BDB4BF000818C4000834
:10300000E0BF000880B582B000AF78600B46FB706F
:103010007B68002B05D1064B064A4821064806F07E
:10302000A7FE7B68FA789A7000BF0837BD4680BD5E
:10303000B4BF000828C40008E0BF000880B584B011
:1030400000AF786039607B68002B05D1104B114AC6
:103050004F21114806F08CFE0023FB730AE0FB7B36
:103060003A681A44FB7B033311787A68D154FB7BAE
:103070000133FB737868FFF7FFFE03461A46FB7BBC
:103080009342ECD300BF00BF1037BD4680BD00BFE8
:10309000B4BF000838C40008E0BF000880B582B0A3
:1030A00000AF78600B46FB707B68002B05D1094BA5
:1030B000094A5821094806F05BFE7868FFF7C2FE0E
:1030C000034601337A68F978D15400BF0837BD460A
:1030D00080BD00BFB4BF000874C40008E0BF000892
:1030E00080B485B000AF03460A46FB711346BB713E
:1030F000FA79BB795340FB710023FB6013E097F929
:103100000730002B09DA97F907305B005BB283F0D8
:103110002A03DB435BB2FB7102E0FB795B00FB71CE
:10312000FB680133FB60FB68072BE8DDFB79184681
:103130001437BD465DF8047B7047000080B584B04D
:1031400000AF78600B46FB707B68002B05D1114BFC
:10315000114A6E21114806F00BFE0023FB73022377
:10316000BB730DE0BB7B7A6813441A78FB7B114676
:103170001846FFF7B5FF0346FB73BB7B0133BB73F8
:10318000BA7BFB78013B9A42ECDBFB7B184610379D
:10319000BD4680BD04C0000884C40008E0BF00082C
:1031A00080B584B000AF78607B68002B05D1124BEE
:1031B000124A7A21124806F0DBFD0023FB7302233A
:1031C000BB730CE0BB7B7A68D25CFB7B1146184674
:1031D000FFF786FF0346FB73BB7B0133BB73786845
:1031E000FFF730FE03461A46BB7B9342EAD9FB7BCE
:1031F00018461037BD4680BDB4BF000898C400080B
:10320000E0BF000880B586B000AFF860B9603B60F1
:103210001346FB71FB79032B04D83B68FA791A70CB
:10322000002365E0BB681B78C82B04D03B680122F3
:103230001A7000235CE0BB681B781946F868FFF73A
:10324000A9FEBB6801331B78012B04D83B6802221E
:103250001A7000234CE0BB6801331B785A1CFB79C1
:103260009A4204DABB6801331B783E2B04D93B68D1
:10327000FA791A7000233BE0BB6801331B781946CA
:10328000F868FFF7A3FEBB6802331B781946F8689D
:10329000FFF7B8FEF868FFF7D5FD0346FB75FB7D29
:1032A0000133BB75F868FFF71FFE03461946B8687F
:1032B000FFF744FF03467B75F868FFF715FE0346EA
:1032C0001A463B681A70BB7DBA6813441B787A7D36
:1032D0009A4201D000230BE07B7D1946F868FFF786
:1032E000DDFEBB6803331946F868FFF7A7FE01232C
:1032F00018461837BD4680BDB0B584B000AF7860C1
:1033000039607B68002B05D11B4B1C4AC7211C4828
:1033100006F02EFD3B68002B05D11A4B174AC82139
:10332000174806F025FD7868FFF7C4FD0346162B05
:1033300001D000231BE07868FFF79EFD0346162BA3
:1033400001D0002313E07B680333FB60FB68BB60A4
:103350003B68BA68116855689468D06819605D6008
:103360009C60D86011691961928A9A82012318467B
:103370001037BD46B0BD00BFB4BF0008D8C40008B8
:10338000E0BF00080CC0000880B586B000AFF86050
:10339000B9607A607B80FB68002B06D1244B254AFC
:1033A00040F20911244806F0E3FCC821F868FFF751
:1033B000F1FD1121F868FFF709FE0221F868FFF717
:1033C00021FEFB6803337B61B9687869FFF7C1FDB3
:1033D0007B69043379681846FFF7BBFD7B690833C6
:1033E0007A8811461846FFF79DFD7B690A333A8CAF
:1033F00011461846FFF796FD7B6903F10C02BB8C62
:1034000003F57A739BB219461046FFF78BFD7B6973
:103410000E3397F828201A70F868FFF7C1FE0346AC
:103420001946F868FFF73AFE00BF1837BD4680BD61
:10343000B4BF0008F0C40008E0BF000880B586B043
:1034400000AFF860084611461A4603467B810B46DA
:103450003B811346FB80FB68002B06D11A4B1B4AAD
:1034600040F24F111A4806F083FCC821F868FFF7B4
:1034700091FD0821F868FFF7A9FD1E21F868FFF704
:10348000C1FDFB6803337B617B8919467869FFF7CF
:1034900049FD7B6902333A8911461846FFF742FD20
:1034A0007B690433FA8811461846FFF73BFDF8683C
:1034B000FFF776FE03461946F868FFF7EFFD00BFF9
:1034C0001837BD4680BD00BFB4BF000804C5000862
:1034D000E0BF000880B586B000AFF8607A601A4699
:1034E0000B46FB721346BB72FB68002B06D12A4BBE
:1034F0002A4A4FF4C2712A4806F03AFC7B68002B36
:1035000006D1284B254A40F28511254806F030FCAB
:10351000BB7A1D2B06D9244B204A4FF4C371204897
:1035200006F026FCC821F868FFF734FDBB7A5B0083
:10353000DBB20333DBB21946F868FFF747FD0E2113
:10354000F868FFF75FFDFB6803333B613B69FA7A7C
:103550001A700023FB750FE0FB7D5B0001333A69B5
:10356000D018FB7D5B007A6813441B881946FFF76F
:10357000D9FCFB7D0133FB75FA7DBB7A9A42EBD314
:10358000F868FFF70DFE03461946F868FFF786FD59
:1035900000BF1837BD4680BDB4BF00081CC5000879
:1035A000E0BF000830C000083CC0000880B582B011
:1035B00000AF78607B68002B05D1094B094A1021C8
:1035C000094806F0D5FB7B68002283F81D2C7B6838
:1035D000002283F81C2C012318460837BD4680BD05
:1035E0006CC0000834C5000874C00008F0B585B090
:1035F00000AF786039607B68002B05D12D4B2E4AD7
:103600001A212E4806F0B4FB7B6893F81D3C322B40
:1036100005D92B4B284A1B21284806F0A9FB7B68BB
:1036200093F81D3C322B01D100233FE079687B6881
:1036300093F81C3C1A467B6893F81D3C1344214ABE
:1036400082FB03021011DA17821A322000FB02F209
:103650009A1A13465B019B1A5B000B44FB60FA68E5
:103660003B68104603F1300402461946D1F800C009
:103670004E688D68C968C2F800C056609560D16018
:1036800010331030A342EFD102461C685868996885
:103690001460506091609B8993817B6893F81D3C16
:1036A0000133DAB27B6883F81D2C012318461437E6
:1036B000BD46F0BD6CC000084CC5000874C00008D1
:1036C000A8C000081F85EB51F0B585B000AF786049
:1036D00039607B68002B05D12E4B2F4A2A212F48B9
:1036E00006F046FB3B68002B05D12D4B2A4A2B21C7
:1036F0002A4806F03DFB7B6893F81D3C002B01D166
:10370000002343E07B6893F81C3C1A4613465B0198
:103710009B1A5B007A681344FB603A68FB681046AA
:1037200003F1300402461946D1F800C04E688D6896
:10373000C968C2F800C056609560D160103310307F
:10374000A342EFD102461C68586899681460506023
:1037500091609B8993817B6893F81D3C013BDAB2B1
:103760007B6883F81D2C7B6893F81C3C01330D4A61
:1037700082FB03121111DA178A1A322101FB02F2BD
:103780009A1AD2B27B6883F81C2C0123184614378E
:10379000BD46F0BD6CC0000864C5000874C00008D8
:1037A000CCC000081F85EB5180B596B000AFF86023
:1037B000B9603B601346FB71FB68002B05D1294BB8
:1037C000294A4521294806F0D3FABB68002B05D1C8
:1037D000274B254A4621254806F0CAFA3B68002BAC
:1037E00005D1244B204A4721204806F0C1FA002386
:1037F00087F8573027E097F85730BA68D118FA7928
:1038000097F85730D31ADAB207F1170307F1180007
:10381000FFF7F8FC034687F85630FA7D97F85730E3
:10382000134487F8573097F85630002B0BD007F128
:1038300018031946F868FFF7D9FE034683F0010321
:10384000DBB2002B05D197F85720FB799A42D2D3EF
:1038500000E000BF3B6897F857201A7000BF583748
:10386000BD4680BD6CC000087CC5000874C000085F
:10387000D4C00008D8C0000880B582B000AF78601E
:103880007B68002B05D1064B064A7F21064806F0CF
:103890006FFA7B689B7818460837BD4680BD00BF2D
:1038A000E4C0000854C60008ECC0000880B582B02F
:1038B00000AF78607B68002B05D1064B064A852156
:1038C000064806F055FA7B68DB7818460837BD468F
:1038D00080BD00BFE4C0000864C60008ECC000085A
:1038E00080B584B000AF78607B68002B05D1084BB1
:1038F000084A8B21084806F03BFA7B680433FB60DA
:10390000FB681B887B817B8918461037BD4680BDCC
:10391000E4C00008E8C50008ECC0000880B582B02B
:1039200000AF78607B68002B05D1084B084AAB21BB
:10393000084806F01DFA7868FFF7D2FF03460833FF
:103940009BB218460837BD4680BD00BFE4C00008E2
:103950003CC60008ECC0000880B485B000AFF86039
:10396000B9601346FB71FB681A78FB791344DAB22D
:10397000FB681A70BB681A78FB681B781344DAB2CC
:10398000BB681A7000BF1437BD465DF8047B7047F2
:1039900080B582B000AF78600B46FB707B68002B6F
:1039A00005D1064B064A2221064806F0E1F97B685C
:1039B000FA781A7000BF0837BD4680BDE4C0000821
:1039C00090C500080CC1000880B582B000AF7860D7
:1039D0000B46FB707B68002B05D1064B064A2A215B
:1039E000064806F0C5F97B68FA785A7000BF0837B8
:1039F000BD4680BDE4C00008A0C500080CC1000899
:103A000080B582B000AF78600B46FB707B68002BFE
:103A100005D1064B064A3221064806F0A9F97B6813
:103A2000FA789A7000BF0837BD4680BDE4C0000830
:103A3000B0C500080CC1000880B582B000AF786046
:103A40000B46FB707B68002B05D1064B064A3921DB
:103A5000064806F08DF97B68FA78DA7000BF0837FF
:103A6000BD4680BDE4C00008C0C500080CC1000808
:103A700080B584B000AF78600B467B807B68002BFC
:103A800005D1084B084A4121084806F071F97B68C6
:103A90000433FB60FB687A881A8000BF1037BD468C
:103AA00080BD00BFE4C00008CCC500080CC1000800
:103AB00080B586B000AFF860B9601346FB80FB6844
:103AC000002B05D1104B114A4921114806F050F93D
:103AD0000023FB820AE0FB8ABA681A44FB8A063399
:103AE0001178FA68D154FB8A0133FB82F868FFF73A
:103AF000F7FE03461A46FB8A9342ECD300BF00BF91
:103B00001837BD4680BD00BFE4C00008D8C5000816
:103B10000CC1000880B582B000AF78600B46FB7026
:103B20007B68002B05D1094B094A5221094806F050
:103B30001FF97868FFF7D4FE034606337A68F978F0
:103B4000D15400BF0837BD4680BD00BFE4C00008A7
:103B5000F4C500080CC1000880B582B000AF7860E1
:103B60000B46FB707B68002B05D1094B094A582195
:103B7000094806F0FDF87868FFF7B2FE0346073300
:103B80007A68F978D15400BF0837BD4680BD00BFC0
:103B9000E4C0000804C600080CC1000880B586B067
:103BA00000AFF8607A603B600B467B81FB68002BBE
:103BB00005D11B4B1B4A60211B4806F0D9F87B68D6
:103BC000002B05D1194B174A6121174806F0D0F890
:103BD0003B68002B05D1164B124A6221124806F0B1
:103BE000C7F87B6800221A703B6800221A70022313
:103BF000FB820BE0FB8AFA6813441B781A4639688B
:103C00007868FFF7A9FEFB8A0133FB82FA8A7B8979
:103C1000023B9A42EEDB00BF00BF1837BD4680BDB5
:103C20002CC1000814C600080CC1000830C10008EF
:103C300038C1000880B586B000AFF860B9603B605D
:103C40001346FB80FB68002B05D14C4B4C4A80216E
:103C50004C4806F08DF8BB68002B05D14A4B484A0A
:103C60008121484806F084F8FB88072B04D83B687C
:103C7000FA881A8000237CE0BB681B78B52B04D03F
:103C80003B6801221A80002373E0BB6801331B7874
:103C9000622B04D03B6802221A80002369E0BB68D3
:103CA0001B781946F868FFF773FEBB6801331B7871
:103CB0001946F868FFF788FEBB6802331B7819467F
:103CC000F868FFF79DFEBB6803331B781946F86858
:103CD000FFF7B2FEBB6804337B617B691B88DA1D8A
:103CE000FB889A4203DA7B691B88A42B04D93B68C2
:103CF000FA881A8000233CE07B691B881946F86823
:103D0000FFF7B6FE0023FB740023BB74F868FFF7CF
:103D100005FE0346194607F1120307F11302B868BE
:103D2000FFF73CFF7B691B880633BA6813441A7897
:103D3000FB7C9A4208D17B691B880733BA6813441D
:103D40001A78BB7C9A4201D0002312E0FB7C194612
:103D5000F868FFF7DFFEBB7C1946F868FFF7FCFE4A
:103D6000BB68991D7B691B881A46F868FFF7A0FE9F
:103D7000012318461837BD4680BD00BFE4C00008C7
:103D80002CC600080CC100082CC1000880B584B006
:103D900000AF786039607B68002B05D16B4B6C4AB3
:103DA000CC216C4805F0E4FF3B68002B05D16A4B41
:103DB000674ACD21674805F0DBFF7868FFF75CFDB7
:103DC0000346012B05D17868FFF770FD0346072BEA
:103DD00001D00023B5E07868FFF782FD03465C2B35
:103DE00001D00023ADE07B680633FB60FB681A68F6
:103DF0003B681A60FB689A883B689A80FB680633C8
:103E00001A783B689A71FB680C331A783B68DA7150
:103E1000FB6808331A783B681A72FB6809331A7812
:103E20003B685A72FB680A331A783B689A72FB68DF
:103E30000B331A783B68DA72FB68DA683B68DA6041
:103E4000FB681A693B681A61FB6814331A783B688F
:103E50001A75FB6815331A783B685A75FB68163378
:103E60001A783B689A75FB6817331A783B68DA75DD
:103E7000FB689A693B689A61FB68DA693B68DA61BA
:103E8000FB681A6A3B681A62FB685A6A3B685A62A6
:103E9000FB689A6A3B689A62FB68DA6A3B68DA6296
:103EA000FB681A6B3B681A63FB685A6B3B685A6382
:103EB000FB689A6B3B689A63FB68DA6B3B68DA6372
:103EC000FB681A6C3B681A64FB685A6C3B685A645E
:103ED000FB689A6C3B689A64FB68B3F84C203B68BB
:103EE000A3F84C20FB68B3F84E203B68A3F84E20A3
:103EF000FB6850331A783B6883F85020FB685133D5
:103F00001A783B6883F85120FB6852331A783B6873
:103F100083F85220FB6853331A783B6883F85320A8
:103F2000FB685A6D3B685A65FB68B3F958203B68DB
:103F3000A3F85820FB68B3F85A203B68A3F85A202E
:103F4000012318461037BD4680BD00BFE4C00008FD
:103F500070C600080CC100084CC1000880B582B0D2
:103F600000AF78607B68002B05D1094B094A0D2111
:103F7000094805F0FDFE7B68002283F8C8207B68B5
:103F8000002283F8C920012318460837BD4680BDAA
:103F900054C1000884C600085CC1000880B584B024
:103FA00000AF786039607B68002B05D11E4B1F4A3B
:103FB00017211F4805F0DCFE7B6893F8C930022BFF
:103FC00005D91C4B194A1821194805F0D1FE7B6808
:103FD00093F8C930022B01D1002320E07A687B6876
:103FE00093F8C8107B6893F8C9300B44DBB203F038
:103FF0000103642101FB03F31344FB60FA683B688F
:104000001046194664231A4606F087F87B6893F831
:10401000C9300133DAB27B6883F8C920012318461E
:104020001037BD4680BD00BF54C100089CC60008C3
:104030005CC1000890C1000880B584B000AF786012
:1040400039607B68002B05D1204B214A272121486C
:1040500005F08EFE3B68002B05D11F4B1C4A282122
:104060001C4805F085FE7B6893F8C930002B01D110
:10407000002327E07B6893F8C8301A46642302FBCC
:1040800003F37A681344FB603A68FB6810461946EC
:1040900064231A4606F041F87B6893F8C930013B67
:1040A000DAB27B6883F8C9207B6893F8C8300133A3
:1040B000002B03F00103B8BF5B42DAB27B6883F8E0
:1040C000C820012318461037BD4680BD54C10008E2
:1040D000B4C600085CC10008B0C1000880B5A0B03B
:1040E00000AFF860B9603B601346FB80FB68002BB3
:1040F00005D1294B294A4221294805F039FEBB68E0
:10410000002B05D1274B254A4321254805F030FED9
:104110003B68002B05D1244B204A4421204805F060
:1041200027FE0023A7F87E3027E0B7F87E30BA6874
:10413000D118FA88B7F87E30D31A9AB207F116036D
:1041400007F11800FFF776FD034687F87D30FA8AFD
:10415000B7F87E301344A7F87E3097F87D30002BF7
:104160000BD007F118031946F868FFF717FF03464D
:1041700083F00103DBB2002B05D1B7F87E20FB886A
:104180009A42D2D300E000BF3B68B7F87E201A8085
:1041900000BF8037BD4680BD54C10008C8C60008B6
:1041A0005CC10008B8C10008BCC1000880B582B07D
:1041B00000AF05F04FFDFCF74DFE034683F0010311
:1041C000DBB2002B02D04FF0FF3308E000237B600E
:1041D0007B6801337B60FCF783FE00BFF8E718467D
:1041E0000837BD4680BD000080B483B000AF786062
:1041F0000B46FB707A6813465B019A1AFB781A44E7
:10420000064BA3FB02131B09322101FB03F3D31A54
:1042100018460C37BD465DF8047B70471F85EB518F
:1042200080B584B000AF78600B46FB707B68002BD4
:1042300005D1144B144A2821144805F099FDFB7848
:10424000142B05D9124B104A2921104805F090FD76
:10425000D223FB600023FB720BE0FB7A7A681344E5
:104260001B781946F868FFF7BFFFF860FB7A013347
:10427000FB72FA7AFB789A42EFD3FB681846103744
:10428000BD4680BDC8C10008DCC60008D4C1000816
:10429000F8C1000880B588B000AFF8600B467A60BE
:1042A000FB72FB68002B05D1304B314A3521314878
:1042B00005F05EFDFB7A142B05D92F4B2C4A3621D5
:1042C0002C4805F055FD7B68002B05D12B4B284A67
:1042D0003721284805F04CFD294B1B68002B01D1E4
:1042E00000233EE0FB7A1946F868FFF799FF034682
:1042F000FB6100237B610023BB612EE0FB69682228
:1043000002FB03F31F4A13447B617B691B78002B7C
:1043100013D07B695B7DFA7A9A420ED17B690133B7
:10432000FA7A1946F86805F060FE0346002B04D1BE
:10433000FA697B681A60012313E0FB690133124AB2
:1043400082FB03121111DA178A1A322101FB02F2E1
:104350009B1AFB61BB690133BB61BB69312BCDD9B2
:10436000002318462037BD4680BD00BFC8C10008E5
:10437000F0C60008D4C10008F8C1000820C2000837
:1043800064480020143400201F85EB5180B586B0AE
:1043900000AFF8600B467A60FB727B68002B05D19A
:1043A0001F4B204A5021204805F0E2FC1F4B1B68A0
:1043B000322B01D100232EE0FB7A1946F868FFF773
:1043C0002FFF03467B6100233B6120E0184A7B6995
:1043D000682101FB03F313441B7883F00103DBB274
:1043E000002B04D07A697B681A60012313E07B6993
:1043F0000133104A82FB03121111DA178A1A322193
:1044000001FB02F29B1A7B613B6901333B613B6913
:10441000312BDBD9002318461837BD4680BD00BFBD
:1044200020C2000800C70008D4C10008644800206A
:10443000143400201F85EB5180B586B000AFF860C2
:104440000B467A60FB72FB68002B05D12B4B2C4A84
:1044500065212C4805F08CFCFB7A142B05D92A4BDE
:10446000274A6621274805F083FC7B68002B05D18D
:10447000264B234A6721234805F07AFCFB7A7A68A9
:104480001946F868FFF782FF034683F00103DBB2A9
:10449000002B01D000232CE07B681B68682202FB04
:1044A00003F31B4A13443B613B690133FA7AF96811
:1044B000184605F0ACFD3B69FA7A5A753B69002253
:1044C0009A753B6901221A700023FB7508E0FA7D9A
:1044D0003B690632002143F82210FB7D0133FB7556
:1044E000FB7D132BF3D90B4B1B680133094A136077
:1044F000012318461837BD4680BD00BFC8C100085B
:1045000014C70008D4C100082CC2000820C200084B
:10451000143400206448002080B584B000AFF860F7
:104520000B467A60FB72FB7A7A681946F868FFF7E7
:10453000B1FE0346002B01D0012306E0FB7A7A6826
:104540001946F868FFF778FF034618461037BD464E
:1045500080BD000080B588B000AFF860B960134638
:10456000FB71FB68312B05D9224B234A9C21234840
:1045700005F0FEFBBB68002B05D1214B1E4A9D2197
:104580001E4805F0F5FBFB79002B01D101232DE03E
:10459000FB68682202FB03F31A4A1344BB61BB6940
:1045A0001B7883F00103DBB2002B01D000231DE058
:1045B000BB699B7D002B01D1012317E0BB69183338
:1045C0007B610023FB770BE0FB7F9B007A69134440
:1045D0001B68FA791146B8689847FB7F0133FB776F
:1045E000BB699B7DFA7F9A42EED3012318462037A0
:1045F000BD4680BD50C2000824C70008D4C10008D1
:1046000078C200081434002080B584B000AF786010
:1046100039607B68312B05D91B4B1C4AB5211C48DE
:1046200005F0A6FB3B68002B05D11A4B174AB621B3
:10463000174805F09DFB7B68682202FB03F3164ACE
:104640001344FB60FB681B7883F00103DBB2002B93
:1046500001D0002314E0FB689B7D142B01D10023C3
:104660000EE0FB689B7D1A46FB680632396843F80A
:104670002210FB689B7D0133DAB2FB689A75012337
:1046800018461037BD4680BD50C2000834C7000828
:10469000D4C100087CC200081434002080B584B066
:1046A00000AF3B4600221A605A609A60DA602F4BD6
:1046B0002F4A1A602D4B4FF480325A602B4B002248
:1046C0009A602A4B01221A61284B01221A76274B45
:1046D000002283F82020254B0022DA62234B254A52
:1046E0009A62224B0022DA60204B0322DA611F4BD0
:1046F000012283F830201D4B01225A611B4801F032
:1047000023FA0346002B01D005F02CFB04233B6069
:1047100001237B600723BB603B461946134801F029
:1047200069FB0346002B01D005F01CFB07233B600F
:1047300002237B603B4619460C4801F05BFB0346B5
:10474000002B01D005F00EFB11233B6003237B609F
:104750003B461946054801F04DFB0346002B01D0AE
:1047600005F000FB00BF1037BD4680BD6848002043
:10477000002001400100000F80B58AB000AF7860D2
:1047800007F1140300221A605A609A60DA601A6115
:104790007B681B682F4A934257D100233B612E4B05
:1047A0005B6C2D4A43F4807353642B4B5B6C03F4B6
:1047B00080733B613B690023FB60274B1B6B264AE0
:1047C00043F001031363244B1B6B03F00103FB60F5
:1047D000FB6890237B610323BB610023FB6107F12E
:1047E000140319461D4802F037FA1D4B1D4A1A6082
:1047F0001B4B00225A601A4B00229A60184B002271
:10480000DA60174B4FF480621A61154B4FF48052F7
:104810005A61134B4FF480429A61114B4FF48072EE
:10482000DA610F4B00221A620D4B00225A620C48CB
:1048300001F0A2FE0346002B01D005F093FA7B683D
:10484000074A9A63064A7B68936300BF2837BD46D0
:1048500080BD00BF0020014000380240000002403F
:10486000B04800201064024080B582B000AF002341
:104870007B602B4B1B6B2A4A43F400131363284BBA
:104880001B6B03F400137B607B6800233B60244BAD
:104890001B6B234A43F480031363214B1B6B03F40C
:1048A00080033B603B6800220021102001F02DFEB8
:1048B000102001F046FE00220021112001F025FE0B
:1048C000112001F03EFE00220021382001F01DFEE3
:1048D000382001F036FE00220021392001F015FEBB
:1048E000392001F02EFE002200213A2001F00DFEB9
:1048F0003A2001F026FE00220021452001F005FEAD
:10490000452001F01EFE00220021462001F0FDFDA1
:10491000462001F016FE00BF0837BD4680BD00BF2F
:104920000038024080B58AB000AF07F114030022BE
:104930001A605A609A60DA601A6100233B61514B39
:104940001B6B504A43F0040313634E4B1B6B03F085
:1049500004033B613B690023FB604A4B1B6B494AE4
:1049600043F080031363474B1B6B03F08003FB6032
:10497000FB680023BB60434B1B6B424A43F00103BF
:104980001363404B1B6B03F00103BB60BB68002348
:104990007B603C4B1B6B3B4A43F002031363394B78
:1049A0001B6B03F002037B607B6801224FF4005114
:1049B000354802F0D5FA01222221344802F0D0FA1B
:1049C000012242F20401324802F0CAFA4FF40053C5
:1049D0007B610123BB610023FB6100233B6207F184
:1049E00014031946284802F037F922237B6101237A
:1049F000BB610023FB6102233B6207F114031946EC
:104A0000224802F029F940237B614FF40413BB6173
:104A10000023FB6107F1140319461C4802F01CF93E
:104A200042F204037B610123BB610023FB6102238B
:104A30003B6207F114031946154802F00DF94FF4D3
:104A400080537B614FF48813BB610023FB6107F146
:104A5000140319460E4802F0FFF800220021172027
:104A600001F053FD172001F06CFD002200212820E9
:104A700001F04BFD282001F064FD00BF2837BD4642
:104A800080BD00BF00380240000802400000024024
:104A90000004024080B500AF134B144A1A60124B59
:104AA0004FF4C8725A60104B00229A600E4B0022DD
:104AB000DA600D4B4FF480421A610B4B00225A61B1
:104AC000094B00229A61084B0022DA61064B002252
:104AD0001A62054802F082FA0346002B01D005F065
:104AE00041F900BF80BD00BF1049002000540040C4
:104AF00080B58AB000AF786007F1140300221A6015
:104B00005A609A60DA601A617B681B68194A93429E
:104B10002CD100233B61184B1B6B174A43F0020357
:104B20001363154B1B6B03F002033B613B694FF4AE
:104B300040737B611223BB610023FB6103233B6253
:104B400004237B6207F1140319460C4802F084F831
:104B50000023FB60084B1B6C074A43F400131364EB
:104B6000054B1B6C03F40013FB60FB6800BF283788
:104B7000BD4680BD005400400038024000040240A1
:104B800080B500AF174B184A1A60164B4FF482726B
:104B90005A60144B00229A60124B0022DA60114BCB
:104BA00002221A610F4B01225A610E4B4FF4007220
:104BB0009A610C4B1022DA610A4B00221A62094BEF
:104BC00000225A62074B00229A62064B0A22DA62DE
:104BD000044802F09FFF0346002B01D005F0C2F805
:104BE00000BF80BD644900200038004080B58AB015
:104BF00000AF786007F1140300221A605A609A60CF
:104C0000DA601A617B681B68194A93422CD1002331
:104C10003B61184B1B6C174A43F480431364154BDC
:104C20001B6C03F480433B613B690023FB60114B29
:104C30001B6B104A43F0020313630E4B1B6B03F014
:104C40000203FB60FB684FF444437B610223BB61BA
:104C50000023FB6103233B6205237B6207F11403FE
:104C60001946054801F0F8FF00BF2837BD4680BD52
:104C700000380040003802400004024080B483B095
:104C800000AF00237B60104B5B6C0F4A43F4804302
:104C900053640D4B5B6C03F480437B607B680023A3
:104CA0003B60094B1B6C084A43F080531364064B6E
:104CB0001B6C03F080533B603B6800BF0C37BD4664
:104CC0005DF8047B704700BF0038024080B400AF3D
:104CD00000BFFDE780B400AF00BFFDE780B400AFC8
:104CE00000BFFDE780B400AF00BFFDE780B400AFB8
:104CF00000BFFDE780B400AF00BFBD465DF8047B98
:104D0000704780B400AF00BFBD465DF8047B7047BC
:104D100080B400AF00BFBD465DF8047B704780B52E
:104D200000AF00F0CDFE00BF80BD000080B500AF39
:104D3000024801F027FD00BF80BD00BFD84C002015
:104D400080B500AF024801F01DFD00BF80BD00BF6F
:104D5000784C002080B500AF402002F01BF900BF66
:104D600080BD80B500AF4FF4805002F013F9FCF71E
:104D7000BFFF00BF80BD000080B500AF024801F05A
:104D800001FD00BF80BD00BFB048002080B500AF6E
:104D9000024801F0F7FC00BF80BD00BF384D002085
:104DA00080B500AF024801F0EDFC00BF80BD00BF40
:104DB000B84B002080B500AF024801F0E3FC00BF13
:104DC00080BD00BF984D002080B500AF024801F0C3
:104DD000D9FC00BF80BD00BF184C002080B400AFDC
:104DE00001231846BD465DF8047B704780B582B04C
:104DF00000AF7860396005F063F9034616221A6047
:104E00004FF0FF3318460837BD4680BD80B582B0ED
:104E100000AF78604FF0FF317868FFF7E7FF00BF21
:104E2000FDE780B586B000AFF860B9607A60002316
:104E30007B610AE0AFF300800146BB685A1CBA6090
:104E4000CAB21A707B6901337B617A697B689A42C6
:104E5000F0DB7B6818461837BD4680BD80B483B050
:104E600000AF78604FF0FF3318460C37BD465DF851
:104E7000047B704780B483B000AF786039603B68D2
:104E80004FF400525A60002318460C37BD465DF8B7
:104E9000047B704780B483B000AF7860012318466C
:104EA0000C37BD465DF8047B704780B485B000AF19
:104EB000F860B9607A60002318461437BD465DF883
:104EC000047B704780B586B000AF7860144A154BFC
:104ED000D31A7B617B693B61134B1B68002B02D1AA
:104EE000114B124A1A60104B1A687B6813443A69D6
:104EF0009A4207D205F0E4F803460C221A604FF0FC
:104F0000FF3309E0084B1B68FB60074B1A687B689E
:104F10001344054A1360FB6818461837BD4680BD28
:104F20000000022000040000BC490020484F00207F
:104F300080B400AF064BD3F88830054A43F47003C1
:104F4000C2F8883000BFBD465DF8047B704700BFE3
:104F500000ED00E080B592B000AF07F14003002201
:104F60001A605A6007F1240300221A605A609A609E
:104F7000DA601A615A619A613B1D202200211846AD
:104F800005F02BF83A4B3B4A1A60394BB3225A6072
:104F9000374B00229A60364B42F20F72DA60344B84
:104FA00000221A61324B00225A61314B00229A6171
:104FB0002F4803F081FB0346002B01D004F0D2FE02
:104FC00000233B6400237B6407F140031946284813
:104FD00003F06CFF0346002B01D004F0C3FE7023E6
:104FE0007B620023BB620023FB6200233B63002340
:104FF0007B630023BB630023FB6307F124030022D0
:1050000019461B4803F058FC0346002B01D004F05E
:10501000A9FE60237B6207F1240304221946144889
:1050200003F04AFC0346002B01D004F09BFE002352
:105030007B600023BB600023FB6000233B610023F7
:105040007B614FF40053BB6100233B623B1D19465B
:10505000074803F099FF0346002B01D004F082FEBD
:10506000034800F0A1F900BF4837BD4680BD00BF2E
:10507000C04900200000014080B58AB000AF07F1B0
:10508000200300221A605A603B1D00221A605A60F9
:105090009A60DA601A615A619A61224B4FF080423D
:1050A0001A60204BB3225A601E4B00229A601D4B9F
:1050B00042F20F72DA601B4B00221A61194B002278
:1050C0009A61184803F0F8FA0346002B01D004F067
:1050D00049FE00233B6200237B6207F1200319464F
:1050E000104803F0E3FE0346002B01D004F03AFE23
:1050F00070237B600023BB600023FB6000237B6187
:105100003B1D04221946074803F0D6FB0346002B3B
:1051100001D004F027FE034800F046F900BF28370D
:10512000BD4680BD084A002080B58AB000AF07F1B7
:10513000200300221A605A603B1D00221A605A6048
:105140009A60DA601A615A619A61324B324A1A6087
:10515000304BB3225A602F4B00229A602D4B42F203
:105160000F72DA602B4B00221A612A4B00229A61DF
:10517000284803F0A1FA0346002B01D004F0F2FD09
:1051800000233B6200237B6207F12003194621487C
:1051900003F08CFE0346002B01D004F0E3FD7023E6
:1051A0007B600023BB600023FB6000237B613B1D11
:1051B00000221946174803F07FFB0346002B01D05D
:1051C00004F0D0FD3B1D04221946124803F074FB85
:1051D0000346002B01D004F0C5FD3B1D08221946F3
:1051E0000C4803F069FB0346002B01D004F0BAFD24
:1051F0003B1D0C221946074803F05EFB0346002BBB
:1052000001D004F0AFFD034800F0CEF800BF28370E
:10521000BD4680BD504A00200004004080B58AB0E1
:1052200000AF07F1200300221A605A603B1D0022E4
:105230001A605A609A60DA601A615A619A61274B63
:10524000274A1A60254BB3225A60244B00229A60E9
:10525000224B42F20F72DA60204B00221A611F4B80
:1052600000229A611D4803F027FA0346002B01D063
:1052700004F078FD00233B6200237B6207F12003EA
:105280001946164803F012FE0346002B01D004F025
:1052900069FD70237B600023BB600023FB6000235B
:1052A0007B613B1D002219460C4803F005FB0346B9
:1052B000002B01D004F056FD3B1D0422194607487F
:1052C00003F0FAFA0346002B01D004F04BFD03482B
:1052D00000F06AF800BF2837BD4680BD984A00201C
:1052E0000008004080B487B000AF78607B681B681E
:1052F000294A93420ED100237B61284B5B6C274ADD
:1053000043F001035364254B5B6C03F001037B61A5
:105310007B693AE07B681B68B3F1804F0ED10023B4
:105320003B611E4B1B6C1D4A43F0010313641B4B76
:105330001B6C03F001033B613B6926E07B681B6843
:10534000174A93420ED10023FB60144B1B6C134A87
:1053500043F002031364114B1B6C03F00203FB6068
:10536000FB6812E07B681B680E4A93420DD1002354
:10537000BB600A4B1B6C094A43F004031364074BE0
:105380001B6C03F00403BB60BB6800BF1C37BD4649
:105390005DF8047B704700BF000001400038024008
:1053A000000400400008004080B58CB000AF786079
:1053B00007F11C0300221A605A609A60DA601A61D1
:1053C0007B681B68484A93421FD10023BB61474B4F
:1053D0001B6B464A43F001031363444B1B6B03F002
:1053E0000103BB61BB694FF44073FB6102233B6265
:1053F00000237B620023BB620123FB6207F11C03D5
:1054000019463B4801F028FC6AE07B681B68B3F151
:10541000804F1ED100237B61344B1B6B334A43F01A
:1054200002031363314B1B6B03F002037B617B6947
:105430000823FB6102233B6200237B620023BB62E3
:105440000123FB6207F11C0319462A4801F004FC02
:1054500046E07B681B68284A93421ED100233B61CB
:10546000224B1B6B214A43F0020313631F4B1B6B40
:1054700003F002033B613B693323FB6102233B6280
:1054800000237B620023BB620223FB6207F11C0343
:105490001946184801F0E0FB22E07B681B68174AB8
:1054A00093421DD10023FB60104B1B6B0F4A43F04E
:1054B000020313630D4B1B6B03F00203FB60FB68DD
:1054C000C023FB6102233B6200237B620023BB629B
:1054D0000223FB6207F11C031946064801F0BCFBDE
:1054E00000BF3037BD4680BD00000140003802409B
:1054F0000000024000040240000400400008004098
:1055000080B500AF114B124A1A60104B4FF4E132D4
:105510005A600E4B00229A600C4B0022DA600B4B53
:1055200000221A61094B0C225A61084B00229A6131
:10553000064B0022DA61054803F078FD0346002B94
:1055400001D004F00FFC00BF80BD00BFE04A002086
:105550000010014080B500AF104B114A1A600F4B8C
:10556000104A5A600D4B00229A600C4B0022DA6000
:105570000A4B00221A61094B0C225A61074B002288
:105580009A61064B0022DA61044803F04FFD03469E
:10559000002B01D004F0E6FB00BF80BD284B0020AB
:1055A000004400409A5B060080B500AF114B124AE0
:1055B0001A60104B4FF416425A600E4B00229A604C
:1055C0000C4B0022DA600B4B00221A61094B0C22B3
:1055D0005A61084B00229A61064B0022DA610548A5
:1055E00003F024FD0346002B01D004F0BBFB00BFF9
:1055F00080BD00BF704B00200014014080B58EB00C
:1056000000AF786007F1240300221A605A609A60A4
:10561000DA601A617B681B688E4A934240F08A8088
:1056200000233B628C4B5B6C8B4A43F0100353644A
:10563000894B5B6C03F010033B623B6A0023FB6108
:10564000854B1B6B844A43F001031363824B1B6B36
:1056500003F00103FB61FB694FF404437B62022307
:10566000BB620023FB6203233B6307237B6307F1D9
:1056700024031946794801F0EFFA794B794A1A6008
:10568000774B4FF000625A60754B00229A60744B62
:105690000022DA60724B4FF480621A61704B002274
:1056A0005A616F4B00229A616D4B0022DA616C4B9C
:1056B00000221A626A4B00225A62694800F05CFFBD
:1056C0000346002B01D004F04DFB7B68644ADA638B
:1056D000634A7B689363644B644A1A60624B4FF081
:1056E00000625A60604B40229A605F4B0022DA6091
:1056F0005D4B4FF480621A615B4B00225A615A4B3A
:1057000000229A61584B0022DA61574B00221A623C
:10571000554B00225A62544800F02EFF0346002BDE
:1057200001D004F01FFB7B684F4A9A634E4A7B68A6
:10573000936336E17B681B684D4A934240F0A28038
:105740000023BB61444B1B6C434A43F40033136496
:10575000414B1B6C03F40033BB61BB6900237B61CD
:105760003D4B1B6B3C4A43F0010313633A4B1B6BED
:1057700003F001037B617B690C237B620223BB6224
:105780000023FB6203233B6307237B6307F12403AE
:105790001946324801F060FA364B374A1A60354BE9
:1057A0004FF000625A60334B40229A60314B002226
:1057B000DA60304B4FF480621A612E4B00225A613E
:1057C0002C4B00229A612B4B0022DA61294B0022DC
:1057D0001A62284B00225A62264800F0CDFE03468A
:1057E000002B01D004F0BEFA7B68224A9A63214A5A
:1057F0007B689363214B224A1A60204B4FF0006272
:105800005A601E4B00229A601C4B0022DA601B4B30
:105810004FF480621A61194B00225A61174B002223
:105820009A61164B0022DA61144B00221A62134B64
:1058300000225A62114800F09FFE0346002B01D05F
:1058400004F090FA7B680D4ADA630C4A7B68936334
:10585000A7E000BF001001400038024000000240F5
:10586000B84B002040640240184C0020B86402404D
:1058700000440040784C0020A0600240D84C00203A
:10588000886002407B681B68484A934240F08980E8
:1058900000233B61464B5B6C454A43F02003536455
:1058A000434B5B6C03F020033B613B690023FB60CF
:1058B0003F4B1B6B3E4A43F0010313633C4B1B6B96
:1058C00003F00103FB60FB684FF4C0537B620223CB
:1058D000BB620023FB6203233B6308237B6307F166
:1058E00024031946334801F0B7F9334B334A1A60A1
:1058F000314B4FF020625A602F4B00229A602E4BA2
:105900000022DA602C4B4FF480621A612A4B00228D
:105910005A61294B00229A61274B0022DA61264BFB
:1059200000221A62244B00225A62234800F024FE0F
:105930000346002B01D004F015FA7B681E4ADA6397
:105940001D4A7B6893631E4B1E4A1A601C4B4FF026
:1059500020625A601A4B40229A60194B0022DA608A
:10596000174B4FF480621A61154B00225A61144B99
:1059700000229A61124B0022DA61114B00221A6256
:105980000F4B00225A620E4800F0F6FD0346002B32
:1059900001D004F0E7F97B68094A9A63084A7B68FA
:1059A000936300BF3837BD4680BD00BF001401407F
:1059B0000038024000000240384D002028640240B8
:1059C000984D0020A0640240DFF834D0FFF7B0FA11
:1059D0000C480D490D4A002302E0D458C45004334A
:1059E000C4188C42F9D30A4A0A4C002301E0136020
:1059F0000432A242FBD304F069FBFEF7D7FB7047E9
:105A000000000220000000206C000020F0CB000805
:105A10006C000020484F0020FEE7000080B500AF7A
:105A20000E4B1B680D4A43F4007313600B4B1B684D
:105A30000A4A43F480631360084B1B68074A43F427
:105A400080731360032000F055FD0F2000F008F86C
:105A5000FFF714F90023184680BD00BF003C024048
:105A600080B582B000AF7860124B1A68124B1B7879
:105A700019464FF47A73B3FBF1F3B2FBF3F3184614
:105A800000F06DFD0346002B01D001230EE07B6882
:105A90000F2B0AD8002279684FF0FF3000F035FD57
:105AA000064A7B681360002300E00123184608378C
:105AB000BD4680BD040000200C000020080000202E
:105AC00080B400AF064B1B781A46064B1B68134484
:105AD000044A136000BFBD465DF8047B704700BFF9
